:100000000C94CC000C94EB000C94EB000C94EB00E3
:100010000C94EB000C94EB000C94EB000C94EB00B4
:100020000C94EB000C94EB000C94EB000C94EB00A4
:100030000C94EB000C94EB000C94EB000C94EB0094
:100040000C94EB000C94EB000C94EB000C94EB0084
:100050000C94EB000C94EB000C94EB000C94EB0074
:100060000C94EB000C94EB000C94EB000C94EB0064
:100070000C94EB000C94EB000C94EB000C94EB0054
:100080000C94EB000C94EB000C94EB003135360033
:10009000322E3130006E616E00696E660000407A6B
:1000A00010F35A00A0724E18090010A5D4E8000001
:1000B000E87648170000E40B54020000CA9A3B009F
:1000C0000000E1F505000080969800000040420F16
:1000D000000000A08601000000102700000000E8DA
:1000E00003000000006400000000000A000000009F
:1000F000000100000000002C76D888DC674F082340
:10010000DFC1DFAE59E1B1B796E5E3E453C63AE6A5
:1001100051997696E8E6C28426EB898C9B62ED4085
:100120007C6FFCEFBC9C9F40F2BAA56FA5F49005D4
:100130005A2AF75C936B6CF9676DC11BFCE0E40D08
:1001400047FEF520E6B500D0ED902E0300943577FC
:10015000050080841E080000204E0A000000C80C24
:10016000333333330F986E12831141EF8D2114898D
:100170003BE65516CFFEE6DB18D1844B381BF77CE7
:100180001D901DA4BBE424203284725E228100C92C
:10019000F124ECA1E53D270011241FBECFEFD0E1F3
:1001A000DEBFCDBF13E0A0E0B1E0EAE5F7E200E09A
:1001B0000BBF02C007900D92AE38B107D9F713E01C
:1001C000AEE8B3E001C01D92A93CB107E1F70E947F
:1001D000ED000C94AB130C940000AF92BF92CF9241
:1001E000DF92EF92FF920F931F93DF93CF93CDB7E0
:1001F000DEB764970FB6F894DEBF0FBECDBF0E9486
:100200002D0C0E940C0C0E94CA020E942D0486E153
:1002100060E00E946C0481E00E94850380E091E030
:100220000E94EE0880E00E94850385E06AE00E945B
:100230006C0482E50E94750886E76AE00E946C04FF
:100240008CE40E9475088E010F5F1F4F92E1E92E2A
:1002500091E0F92E89E2A82E81E0B82E8AE090E0A4
:100260000E942803D801E9E3F1E083E101900D92B7
:100270008150E1F71C8A0E94150B8DB79EB70C9731
:100280000FB6F8949EBF0FBE8DBFEDB7FEB7319687
:10029000ADB7BEB712961C930E931197F382E2820C
:1002A0008091C3039091C403B3E096958795BA9566
:1002B000E1F7958384838091BF039091C003A3E00D
:1002C00096958795AA95E1F7978386838091BD03DC
:1002D0009091BE0373E0969587957A95E1F79187A3
:1002E00080878091C1039091C20363E096958795C2
:1002F0006A95E1F7938782870E94F612EDB7FEB701
:100300003C960FB6F894FEBF0FBEEDBF86E16EE1DE
:100310000E946C04C8010E94EE088DB79EB70C972E
:100320000FB6F8949EBF0FBE8DBFEDB7FEB73196E6
:10033000ADB7BEB712961C930E931197F382E2826B
:100340008091BB039091BC0353E0969587955A9595
:10035000E1F7958384838091B7039091B80343E0DC
:10036000969587954A95E1F7978386838091B503A3
:100370009091B60333E0969587953A95E1F791878A
:1003800080878091B9039091BA0323E09695879571
:100390002A95E1F7938782870E94F612EDB7FEB7A0
:1003A0003C960FB6F894FEBF0FBEEDBF86E168E243
:1003B0000E946C04C8010E94EE080E94250C8DB7B3
:1003C0009EB708970FB6F8949EBF0FBE8DBFCDB6EF
:1003D000DEB60894C11CD11CADB7BEB712961C93F3
:1003E0000E931197F601B382A2826091C5037091BA
:1003F000C60380E090E00E94D40C29EB3CEF47E874
:100400005CE30E94620D2CEE31E548E95FE30E9457
:100410006F0CD60114966D937D938D939C931797D3
:100420000E94F612EDB7FEB738960FB6F894FEBFED
:100430000FBEEDBF8EE16AE00E946C0481E00E9475
:10044000850380E391E00E94EE0880E00E9485032E
:10045000C8010E94EE0802CF90916500282F30E07D
:1004600080E0A9014170507020FF81E09E7F982BB1
:1004700090936500809165004115510511F490E05D
:1004800001C092E08D7F892B80936500809165008B
:1004900021FD02C090E001C098E0877F892B809306
:1004A0006500809165008F7E809365008FEF8ABB29
:1004B0006BBB85E0982F9A95F1F790916500946059
:1004C00090936500982F9A95F1F7909165009B7F26
:1004D000909365008A95F1F71BBA1ABA0895909126
:1004E0006500282F30E080E0A9014170507020FFA6
:1004F00081E09E7F982B9093650080916500411567
:10050000510511F490E001C092E08D7F892B80931A
:1005100065008091650021FD02C090E001C098E077
:10052000877F892B8093650080916500806180932F
:1005300065001ABA25E0822F8A95F1F7809165004F
:1005400084608093650085E18A95F1F789B3909185
:1005500065009B7F90936500922F9A95F1F708951F
:100560001F93CF93DF9390919603992371F0182FE7
:100570001170CFEFDFEF812F0E946F02219787FD6F
:1005800002C081E003C02097B1F780E0DF91CF91F6
:100590001F9108958FEF8093960380916400886087
:1005A00080936400809164008061809364008091F6
:1005B0006400846080936400809164008160809313
:1005C000640080916400826080936400B89A1ABAD3
:1005D00080916500877F80936500809165008F7EA4
:1005E00080936500809165008B7F8093650080918A
:1005F00065008E7F80936500809165008D7F80937C
:100600006500C098979B07C0979880EA9FE0019784
:10061000F1F7979A04C080EA9FE00197F1F7C09A3A
:1006200080E00E94B002882351F081E00E94B00275
:10063000882311F082E001C081E0809396038091CD
:1006400096038F3F11F410929603809196030895BC
:1006500020EA3FE004C0F9013197F1F701970097D4
:10066000D1F7089580919A0308958091A303089586
:10067000809397030895982F9052903608F080E861
:10068000805290E0FC01EE0FFF1FE80FF91FEE0F04
:10069000FF1FE35BFE4F908180919903882309F44B
:1006A0009FE180E020E090FD8F5F2F5F253011F00B
:1006B0009695F9CF08951F93CF93DF93EC0110E047
:1006C00005C021960E943B038F5F180F8881882305
:1006D000C1F7812FDF91CF911F9108951F93CF9381
:1006E000DF93EC0110E007C02196F90184910E948C
:1006F0003B038F5F180F9E01FE0194919923A1F790
:10070000812FDF91CF911F910895809399030895D0
:10071000809199030895863130F4683020F4609315
:1007200098038093A40308950F931F93DF93CF93AF
:100730000F92CDB7DEB7182F6854883018F580E0D7
:1007400069830E94B00280E069810E942C0280E0EF
:100750000E94B002612F660F660F660F605C80E03A
:100760000E942C020BE913E082E00E94B00282E0BA
:10077000F80161918F010E942C02F3E0033A1F07F8
:1007800099F723C0185081E069830E94B00281E08C
:1007900069810E942C0281E00E94B002612F660FE5
:1007A000660F660F605C81E00E942C020BE913E08B
:1007B00083E00E94B00283E0F80161918F010E9402
:1007C0002C02F3E0033A1F0799F70F90CF91DF91C6
:1007D0001F910F910895FF920F931F93F82E18EB1E
:1007E00080E00E94B00281E00E94B00280E0612FB0
:1007F0000E942C0281E0612F0E942C0200E082E026
:100800000E94B00283E00E94B00282E06F2D0E943D
:100810002C0283E06F2D0E942C020F5F003479F7C9
:100820001F5F103CE9F680E00E94B00281E00E9468
:10083000B00280E068EB0E942C0281E068EB0E942D
:100840002C021F910F91FF90089580E00E94EB030E
:10085000109298031092A403089580E00E94B002C1
:1008600080E06FE30E942C0280E00E94B00280E0F2
:1008700060EC0E942C0280E00E94B00280E060E404
:100880000E942C0280E00E94B00280E068EB0E948F
:100890002C0281E00E94B00281E06FE30E942C02F2
:1008A00081E00E94B00281E060EC0E942C0281E0B5
:1008B0000E94B00281E060E40E942C0281E00E946C
:1008C000B00281E068EB0E942C0280E00E94EB0302
:1008D00081E08093970308950F931F93182F062F9D
:1008E00080939A036093A30380E00E94B00281E0AA
:1008F0000E94B002069506950695085480E0602F88
:100900000E942C0281E0602F0E942C0280E00E9455
:10091000B00281E00E94B002113438F080E060E45F
:100920000E942C0281E0612F07C0612F605C80E093
:100930000E942C0281E060E40E942C021F910F9122
:100940000895EF92FF920F931F93CF93DF9319EBCC
:1009500047C00830E8F480E00E94B00280E0612FD8
:100960000E942C0280E00E94B0026F2D605C80E04B
:100970000E942C0282E00E946F02CBE9D3E082E069
:100980000E946F02899383E0C33AD807C1F71BC066
:1009900081E00E94B00281E0612F0E942C0281E080
:1009A0000E94B00281E06F2D0E942C0283E00E9421
:1009B0006F02CBE9D3E083E00E946F02899383E06A
:1009C000C33AD807C1F7802F6E2D0E9494030F5FA2
:1009D00088E0F80E003109F0BCCF1F5F103C31F009
:1009E000FF2400E037E4E32EE10EB3CFEBE9F3E0C0
:1009F000119283E0E33AF807D9F710E0812F67E01E
:100A00000E9494031F5F1031C9F7809198038823D7
:100A100019F0815080939803DF91CF911F910F912E
:100A2000FF90EF900895EF92FF920F931F93E82E9F
:100A3000162F80919A0387FD39C000E0803408F0BA
:100A400001E0802F0E94B00242E0F42EF00E8F2DC4
:100A50000E946F028F2D0E946F029091970392FF68
:100A600002C0E0949B7FE122992319F41E2D182BDC
:100A700008C0913021F4109518231E2902C01E2DA4
:100A80001827802F0E94B00260919A036064802F23
:100A90000E942C02802F0E94B0028F2D612F0E9495
:100AA0002C0280919A038F5F80939A031F910F917C
:100AB000FF90EF9008959091A303977061E070E02C
:100AC00002C0660F771F9A95E2F7882311F0862FF0
:100AD00002C0862F60E00E94130508952F923F9276
:100AE0004F925F926F927F928F929F92AF92BF923E
:100AF000CF92DF92EF92FF920F931F93DF93CF93EA
:100B000000D000D000D0CDB7DEB7082F162F5A8303
:100B1000498360909A03E090A3038E2D87702FEF96
:100B200030E0F22E01C0FF0C8A95EAF7802F90E0AA
:100B3000019768E070E00E9493116F5FA62EBB24BE
:100B4000C50173E0880F991F7A95E1F74424552475
:100B5000481A590ACC2468E0762E5FEF852E912C36
:100B6000BC82AB8271C08E2D8770D72CD81A1D1510
:100B700048F48D2D811B940102C0359527958A95E7
:100B8000E2F7F2228D2D8C0D90E08A9D10018B9D55
:100B9000300C9A9D300C112480E090E09E838D8370
:100BA00043C04D815E81477050704115510571F50C
:100BB000E695E695E695C1018E0F911DFC01A98190
:100BC000BA81EA0FFB1FE40DF51D20E030E06D81D6
:100BD0007E819491ABE9B3E08C9186958C9390FFE4
:100BE00002C080688C93119683E0A33AB80711F095
:100BF0009695F2CF2F5F3F4F2830310529F0AB811A
:100C0000BC81EA0FFB1FE5CF7E836D8345565C4FA9
:100C1000FA0180818F216F2D0E9413052D813E8165
:100C20002F5F3F4F3E832D83ED81E01708F4B9CF4E
:100C30001D1508F4D12E1D19ED0CCD0C862D6E2D31
:100C40000E946C04FF24FA94112309F08CCF26969D
:100C50000FB6F894DEBF0FBECDBFCF91DF911F91CD
:100C60000F91FF90EF90DF90CF90BF90AF909F904B
:100C70008F907F906F905F904F903F902F9008954E
:100C80002F923F924F925F926F927F928F929F929C
:100C9000AF92BF92CF92DF92EF92FF920F931F938A
:100CA000DF93CF9300D000D000D0CDB7DEB7082FB0
:100CB000162F5A83498360909A03E090A3038E2DE8
:100CC00087702FEF30E0F22E01C0FF0C8A95EAF713
:100CD000802F90E0019768E070E00E9493116F5FB1
:100CE000A62EBB24C501A3E0880F991FAA95E1F7A2
:100CF00044245524481A590ACC24F8E07F2EEFEFFB
:100D00008E2E912CBC82AB8271C08E2D8770D72C19
:100D1000D81A1D1548F48D2D811B940102C03595FC
:100D200027958A95E2F7F2228D2D8C0D90E08A9D11
:100D300010018B9D300C9A9D300C112480E090E0C6
:100D40009E838D8343C04D815E81477050704115F5
:100D5000510571F5E695E695E695C1018E0F911D59
:100D6000FC01A981BA81EA0FFB1FE40DF51D20E00B
:100D700030E06D817E819081ABE9B3E08C91869506
:100D80008C9390FF02C080688C93119683E0A33A05
:100D9000B80711F09695F2CF2F5F3F4F28303105FD
:100DA00029F0AB81BC81EA0FFB1FE5CF7E836D8309
:100DB00045565C4FFA0180818F216F2D0E941305EB
:100DC0002D813E812F5F3F4F3E832D83ED81E017C4
:100DD00008F4B9CF1D1508F4D12E1D19ED0CCD0C5A
:100DE000862D6E2D0E946C04FF24FA94112309F0C5
:100DF0008CCF26960FB6F894DEBF0FBECDBFCF9135
:100E0000DF911F910F91FF90EF90DF90CF90BF90F7
:100E1000AF909F908F907F906F905F904F903F909A
:100E20002F900895AF92BF92CF92DF92EF92FF92F0
:100E30000F931F93CF93DF93A82E162FB0909A0392
:100E4000F090A3038F2D87702FEF30E0022F01C0A9
:100E5000000F8A95EAF7B8E0CB2ECFEFD0E022C0A2
:100E60008F2D8770EC2CE81A1E1548F48E2D811BEF
:100E70009E0102C0359527958A95E2F70223DA2C68
:100E800005C0802F602F0E941305DA94DD20C9F77A
:100E90001E1508F4E12E1E19FE0C8B2D6F2D0E94DD
:100EA0006C040FEF1123E1F6DF91CF911F910F91A9
:100EB000FF90EF90DF90CF90BF90AF900895682F94
:100EC00081E00E94120708950F931F93182F8091BD
:100ED000A303877021E030E0022F01C0000F8A9544
:100EE000EAF705C0802F602F0E94130511501123CF
:100EF000C9F71F910F9108959F92AF92BF92CF9221
:100F0000DF92EF92FF920F931F93082F162FF0900E
:100F10009A03E090A3038F1561F4E61618F4862F68
:100F20008E1904C00E946C048E2D811B0E945F07E5
:100F30005EC0DE2C6E1559F4F81610F48F1904C03B
:100F40000E946C048F2D801B0E94640750C08F1577
:100F500028F4AF2CA81A99249A9409C0F81618F00E
:100F60009924AA2404C0A82EAF18992493941E157E
:100F700028F4BE2CB11ACC24CA9409C0E11618F08A
:100F8000CC24BB2404C0B12EBE18CC24C39481E071
:100F90000E945B05BA14B0F4EA2CE694E194F90CD3
:100FA000EB0C1E1414F4EA18DC0C8F2D6D2D0E942E
:100FB0006C0481E00E945B05F90C8F2D8919801764
:100FC00079F715C0DB2CD694D194EC0CDA0C1D14F7
:100FD00014F4DB18F90C8F2D6E2D0E946C0481E047
:100FE0000E945B05EC0C8E2D8C19811779F7802FF0
:100FF000612F0E946C041F910F91FF90EF90DF9082
:10100000CF90BF90AF909F9008958F929F92AF9294
:10101000BF92CF92DF92EF92FF920F931F93CF93E5
:10102000DF93062F982F9052903608F080E8805278
:1010300096E0899FE0011124C35BDE4F1881809107
:101040009903882309F41FE1E02EFF24E7FCF094C4
:101050008FEF90E06C010E2C02C0CC0CDD1C0A94CA
:10106000E2F7AA24BB24AE18BF080A2C02C095954B
:1010700087950A94E2F7D82E85E0882E912C8C0E65
:101080009D1E10FF16C0898107FD09C090E00E2C3F
:1010900002C0880F991F0A94E2F76C2D08C090E0F7
:1010A0000A2C02C0959587950A94E2F76D2D0E944F
:1010B00013052196C815D90511F01695E2CF07FD45
:1010C00003C080E06C2D02C080E06D2D0E941305EE
:1010D000DF91CF911F910F91FF90EF90DF90CF9014
:1010E000BF90AF909F908F900895FF920F931F93A2
:1010F000082FF0909A031091A3031770612F0E949C
:101100000508112391F06091A303685F8F2D0E9461
:101110006C04612F6850802F0E9405086091A30322
:10112000685080919A030E946C041F910F91FF9068
:1011300008951F93CF93DF93EC011092990336C06B
:101140001A3069F41092A403809198038F5F809302
:101150009803883059F581E00E94A10427C01D3012
:1011600029F18091A403853160F01092A40380914D
:1011700098038F5F80939803883019F481E00E9470
:10118000A1049091A403892F880F890F609198037F
:10119000660F660F660F880F0E946C04812F0E94F5
:1011A00075088091A4038F5F8093A4031991112384
:1011B00039F6DF91CF911F910895CF93DF93EC0122
:1011C00005C02196F90184910E9475089E01FE01D7
:1011D00094919923B1F7DF91CF910895CF93DF9345
:1011E000EC0103C021960E94750888818823D1F7FD
:1011F000DF91CF910895CF93DF93C5EAD3E020919B
:10120000AD033091AE0388819981281B390B40E0F2
:1012100050E060E070E080E190E00E94A611309321
:101220008F0320938E032A853B858A819B81281B0F
:10123000390B40E050E060E070E080E190E00E9417
:10124000A61130939103209390032C853D858C81CA
:101250009D81281B390B40E050E060E070E080E1A8
:1012600090E00E94A61130939303209392032E8561
:101270003F858E819F81281B390B40E050E060E064
:1012800070E080E190E00E94A611309395032093D6
:101290009403DF91CF91089585EA93E060E070E0D8
:1012A00040E150E00E949413089585EA93E060E0E5
:1012B00070E040E150E00E9484138091A50390917A
:1012C000A6032FEF8F3F920711F51092A6031092FD
:1012D000A5031092A8031092A7031092AA031092DC
:1012E000A9031092AC031092AB0380E091E09093BD
:1012F000AE038093AD039093B0038093AF039093BC
:10130000B2038093B1039093B4038093B3030E941C
:10131000FB080895CF93DF9382E00E944C0CCFEF3F
:10132000D3E09E01281B390B3093B6032093B503FD
:1013300083E00E944C0C9E01281B390B3093B803AC
:101340002093B70381E00E944C0C9E01281B390BAF
:101350003093BA032093B90380E00E944C0CC81B61
:10136000D90BD093BC03C093BB0380E00E944C0C0C
:10137000C81BD90BC150DC4FD093BC03C093BB0337
:10138000C091B903D091BA0381E00E944C0CC150C6
:10139000DC4FC81BD90BD093BA03C093B903C091DB
:1013A000B703D091B80383E00E944C0CC150DC4FCE
:1013B000C81BD90BD093B803C093B703C091B50332
:1013C000D091B60382E00E944C0CC150DC4FC81B88
:1013D000D90BD093B603C093B503DF91CF91089595
:1013E000809162008F7B8093620081E090E00E9498
:1013F00028030E948A098091B5039091B6039093C7
:10140000BE038093BD038091B7039091B80390937E
:10141000C0038093BF038091B9039091BA03909366
:10142000C2038093C1038091BB039091BC0390934E
:10143000C4038093C3038091620080648093620040
:1014400081E090E00E9428030E948A092091B50360
:101450003091B6038091BD039091BE0328173907E0
:1014600008F4C901281B390B3093B6032093B50348
:101470002091B7033091B8038091BF039091C003CE
:101480002817390708F4C901281B390B3093B80312
:101490002093B7032091B9033091BA038091C1031F
:1014A0009091C2032817390708F4C901281B390B8A
:1014B0003093BA032093B9032091BB033091BC034E
:1014C0008091C3039091C4032817390708F4C90118
:1014D000281B390B3093BC032093BB0308951F9343
:1014E0001092AE031092AD031092B0031092AF03AE
:1014F0001092B2031092B1031092B4031092B3038E
:1015000010E00E94F0098091B5039091B6032091FC
:10151000AD033091AE03820F931F9093AE0380937F
:10152000AD038091B7039091B8032091AF03309140
:10153000B003820F931F9093B0038093AF03809109
:10154000B9039091BA032091B1033091B203820F95
:10155000931F9093B2038093B1038091BB0390914A
:10156000BC032091B3033091B403820F931F909377
:10157000B4038093B3031F5F103119F60E94FB0878
:101580001F9108951F931092A6031092A503109225
:10159000A8031092A7031092AA031092A903109215
:1015A000AC031092AB0310E00E94F0098091B503E8
:1015B0009091B6032091A5033091A603820F931F4B
:1015C0009093A6038093A5038091B7039091B803ED
:1015D0002091A7033091A803820F931F9093A80333
:1015E0008093A7038091B9039091BA032091A90336
:1015F0003091AA03820F931F9093AA038093A903AB
:101600008091BB039091BC032091AB033091AC035C
:10161000820F931F9093AC038093AB031F5F103135
:1016200019F60E94FB081F9108952F923F924F9246
:101630005F926F927F928F929F92AF92BF92CF9262
:10164000DF92EF92FF920F931F930E94F009E090B8
:101650008E03F0908F0300E010E08091A50390913D
:10166000A60354E0969587955A95E1F76091B503E6
:101670007091B603681B790B80E090E0A801970198
:101680000E947411672F782F892F99277093B603C2
:101690006093B503A0909003B0909103CC24DD2417
:1016A0008091A7039091A80334E0969587953A9589
:1016B000E1F76091B7037091B803681B790B80E084
:1016C00090E0A60195010E947411672F782F892F51
:1016D00099277093B8036093B7036090920370905A
:1016E0009303882499248091A9039091AA03B4E0DC
:1016F00096958795BA95E1F76091B9037091BA0311
:10170000681B790B80E090E0A40193010E947411A2
:10171000672F782F892F99277093BA036093B903A5
:101720002090940330909503442455248091AB037A
:101730009091AC03F4E096958795FA95E1F7609166
:10174000BB037091BC03681B790B80E090E0A201A1
:1017500091010E947411672F782F892F9927709318
:10176000BC036093BB036091BD037091BE0380E036
:1017700090E0A80197010E947411672F782F892F9C
:1017800099277093BE036093BD036091BF0370916E
:10179000C00380E090E0A60195010E947411672FBC
:1017A000782F892F99277093C0036093BF036091AE
:1017B000C1037091C20380E090E0A40193010E94F4
:1017C0007411672F782F892F99277093C203609324
:1017D000C1036091C3037091C40380E090E0A20153
:1017E00091010E947411672F782F892F9927709388
:1017F000C4036093C3031F910F91FF90EF90DF909C
:10180000CF90BF90AF909F908F907F906F905F90A0
:101810004F903F902F9008950E945509E2E6F0E026
:1018200080818F7B8083E1E6F0E08081806480832B
:1018300081E00E94390C80E00E94390C82E00E9415
:10184000390C83E00E94390C089587E00E944C0C0B
:101850009093C6038093C50308958F9A97988AE062
:1018600090E00E942803979A84E690E00E94280363
:101870000895E1E6F0E0908121E030E002C0220F1F
:10188000331F8A95E2F7209592239083E2E6F0E0F9
:10189000808182238083089590E497B997B18770FF
:1018A000892B87B987EC86B901C000003699FDCF36
:1018B00084B195B1392F20E0280F311D8091C703E5
:1018C0009091C803820F931F9093C8038093C7031E
:1018D000C90108958091C7039091C8030895505895
:1018E000BB27AA270ED0B4C0A5D030F0AAD020F0D4
:1018F00031F49F3F11F41EF49AC00EF4E095E7FB1B
:1019000090C0E92FB6D080F3BA1762077307840737
:10191000950718F071F49EF5CEC00EF4E0950B2EED
:10192000BA2FA02D0B01B90190010C01CA01A00131
:101930001124FF27591B99F0593F50F4503E68F18C
:101940001A16F040A22F232F342F4427585FF3CFCD
:10195000469537952795A795F0405395C9F77EF49E
:101960001F16BA0B620B730B840BBAF09150A1F0E7
:10197000FF0FBB1F661F771F881FC2F70EC0BA0F6D
:10198000621F731F841F48F4879577956795B795F5
:10199000F7959E3F08F0B3CF9395880F08F09927ED
:1019A000EE0F979587950895E89409C097FB3EF44C
:1019B00090958095709561957F4F8F4F9F4F99239C
:1019C000A9F0F92F96E9BB279395F695879577951A
:1019D0006795B795F111F8CFFAF4BB0F11F460FFDA
:1019E0001BC06F5F7F4F8F4F9F4F16C0882311F032
:1019F00096E911C0772321F09EE8872F762F05C046
:101A0000662371F096E8862F70E060E02AF09A95E0
:101A1000660F771F881FDAF7880F9695879597F9D5
:101A2000089597F99F6780E870E060E008959FEF60
:101A300080EC089500240A94161617061806090665
:101A4000089500240A941216130614060506089534
:101A5000092E0394000C11F4882352F0BB0F40F4BC
:101A6000BF2B11F460FF04C06F5F7F4F8F4F9F4FFC
:101A7000089557FD9058440F551F59F05F3F71F07E
:101A80004795880F97FB991F61F09F3F79F08795E5
:101A90000895121613061406551FF2CF4695F1DF6E
:101AA00008C0161617061806991FF1CF86957105FE
:101AB000610508940895E894BB2766277727CB0132
:101AC00097F908950BD0C4CFB5DF28F0BADF18F02E
:101AD000952309F0A6CFABCF1124EECFCADFA0F338
:101AE000959FD1F3950F50E0551F629FF001729FB3
:101AF000BB27F00DB11D639FAA27F00DB11DAA1FD2
:101B0000649F6627B00DA11D661F829F2227B00D1E
:101B1000A11D621F739FB00DA11D621F839FA00DA9
:101B2000611D221F749F3327A00D611D231F849FF9
:101B3000600D211D822F762F6A2F11249F57504050
:101B40008AF0E1F088234AF0EE0FFF1FBB1F661FEB
:101B5000771F881F91505040A9F79E3F510570F0A4
:101B600060CFAACF5F3FECF3983EDCF38695779584
:101B70006795B795F795E7959F5FC1F7FE2B880F9F
:101B8000911D9695879597F908952F923F924F92C0
:101B90005F926F927F928F929F92AF92BF92CF92FD
:101BA000DF92EF92FF920F931F93DF93CF93CDB706
:101BB000DEB763970FB6F894DEBF0FBECDBF6C01E2
:101BC0007F876E87FC0117821682838181FD04C0A6
:101BD0006FC34C855D8504C01E010894211C311C17
:101BE000F6019381EE85FF8593FD859193FF8191A9
:101BF000FF87EE87882309F457C3853241F493FDAC
:101C0000859193FF8191FF87EE87853259F490E0AB
:101C1000B6014A8B5B8B0E94CA124A895B895D8739
:101C20004C87D7CF10E0FF2400E00032B0F48B32B5
:101C300069F08C3228F4803251F0833271F40BC099
:101C40008D3239F0803349F401602CC002600460A9
:101C500029C0086027C0006125C007FD2EC0282FBD
:101C600020532A3098F406FF08C0812F880F182FC0
:101C7000110F110F180F120F15C08F2D880FF82E8E
:101C8000FF0CFF0CF80EF20E00620CC08E3221F435
:101C900006FD0AC3006406C08C3611F4006802C059
:101CA000883659F4EE85FF8593FD859193FF8191E8
:101CB000FF87EE87882309F0B8CF982F955493308B
:101CC00018F40061805E06C0982F9556933008F096
:101CD0009BC10F7E06FF16E06FE3E62EE0228536FD
:101CE00019F4F0E4EF2A07C0863619F420E8E22A56
:101CF00002C011111150E7FE06C01C3340F4912EB2
:101D0000939427E00BC0183030F4212F06C027E051
:101D10003CE3932E03C027E017E09924CA01049600
:101D20009D878C87FA016081718182819381A101F5
:101D3000092D0E94DC115C016980262D30E0398B71
:101D4000288B60FE03C0388933FF06C0E1FC06C063
:101D5000E2FE06C000E205C00DE203C00BE201C0D6
:101D600000E0888999898C7090700097C1F10023F8
:101D700011F084E001C083E08F1558F4F81AE3FCF9
:101D800009C080E290E0B6010E94CA12FA94C9F735
:101D900001C0FF24002329F0802F90E0B6010E94AB
:101DA000CA12888983FD03C009E910E00EC005E965
:101DB00010E00BC0A114B10409F0805290E0B6010C
:101DC0000E94CA120F5F1F4F05C0AE2CBB2490E1CA
:101DD000A922BB24F8018491882361F762C2E7FE3F
:101DE0000EC09A0CF889F4FF04C08A81813309F48B
:101DF0009A94191454F5292D293050F52DC0E6FC7C
:101E00002BC0812F90E08A159B054CF03CEFA31668
:101E10003FEFB30624F080E8E82A01C011501123F7
:101E200049F0E2E0F0E0EC0FFD1FE10FF11D8081D1
:101E30008033A1F3E7FE10C0912E9394812F90E0A0
:101E4000A816B90644F41A1907C09924939404C03B
:101E500098E0992E01C010E0E7FE07C01A141B0499
:101E60003CF495012F5F3F4F05C025E030E002C0F4
:101E700021E030E0002311F02F5F3F4F112329F0C4
:101E8000812F90E00196280F391F8F2D90E02817A1
:101E9000390714F4F21A01C0FF244E2C5524C20154
:101EA00089709070009749F406C080E290E0B60116
:101EB0000E94CA12FA94FF20C1F7002329F0802F54
:101EC00090E0B6010E94CA1243FC09C006C080E33C
:101ED00090E0B6010E94CA12FA94FF20C1F7E7FE13
:101EE00046C03501B7FE02C0662477242501089458
:101EF000411C511C46185708420C531CF501E919A6
:101F0000F1094F01812F90E000271127081B190BC1
:101F1000FFEF6F16FFEF7F0629F48EE290E0B60127
:101F20000E94CA12A614B70434F0861497041CF455
:101F3000F201808101C080E308946108710808946F
:101F4000411C511C601671062CF090E0B6010E94F5
:101F5000CA12DECF6A147B0441F49A81963320F4CE
:101F6000953319F4F889F4FF81E390E049C08A8140
:101F7000813311F02FEE622290E0B6010E94CA1266
:101F8000112389F08EE290E0B6010E94CA1202E0AD
:101F9000F101E00FF11D0F5F808190E0B6010E941A
:101FA000CA121150A9F744FE03C085E490E002C0B4
:101FB00085E690E0B6010E94CA12B7FC05C0A114E4
:101FC000B10441F464FE06C0B094A194B108B39486
:101FD0008DE201C08BE290E0B6010E94CA1280E35C
:101FE00005C08F5FE6EFFFEFAE0EBF1EFAE0AF1643
:101FF000B104BCF790E0B6010E94CA12C501C096B8
:10200000B6010E94CA124DC1833631F0833789F080
:10201000833509F059C022C09A012E5F3F4F3D879A
:102020002C87FA0180818983310181E0A82EB12CAF
:1020300013C09A012E5F3F4F3D872C87FA016080C5
:10204000718006FF03C0612F70E002C06FEF7FEF69
:10205000C3010E94BF125C010F7714C09A012E5F6A
:102060003F4F3D872C87FA016080718006FF03C0D7
:10207000612F70E002C06FEF7FEFC3010E94B412C6
:102080005C01006803FD1CC006C080E290E0B60160
:102090000E94CA12FA948F2D90E0A816B906A8F3F0
:1020A0000FC0F30107FD859107FF81913F0190E08B
:1020B000B6010E94CA12F110FA940894A108B1085E
:1020C000A114B10471F7EDC0843611F0893661F5C1
:1020D00007FF0BC09A012C5F3F4F3D872C87FA0109
:1020E00060817181828193810CC09A012E5F3F4F84
:1020F0003D872C87FA0160817181882777FD809563
:10210000982F0F7697FF08C09095809570956195F0
:102110007F4F8F4F9F4F0068A1012AE030E00E945F
:102120002613982E921841C0853721F40F7E2AE09D
:1021300030E020C0097F8F36A9F0803720F4883541
:1021400009F0B2C00BC0803721F0883709F0ACC06D
:1021500001C0006104FF09C0046007C004FF08C09B
:10216000066006C028E030E005C020E130E002C093
:1021700020E132E007FF0AC0CA0104969D878C87E0
:10218000FA01608171818281938109C0CA0102963E
:102190009D878C87FA016081718180E090E0A101C8
:1021A0000E942613982E92180F7706FF09C00E7F03
:1021B000911630F404FF06C002FD04C00F7E02C079
:1021C000E92C01C0E12E802F90E004FF0CC0FE013D
:1021D000E90DF11D2081203311F4097E09C0E3943B
:1021E00002FF06C004C086789070009709F0E3945F
:1021F000A02EBB2403FD14C000FF0FC0EF1428F471
:10220000192D1F0D1E19EF2C08C0192D06C080E2D4
:1022100090E0B6010E94CA12E394EF14C0F304C028
:10222000EF1410F4FE1801C0FF24A4FE0FC080E3D9
:1022300090E0B6010E94CA12A2FE1FC0A1FE03C018
:1022400088E590E010C088E790E00DC0C501867871
:102250009070009791F0A1FC02C080E201C08BE277
:1022600007FD8DE290E0B6010E94CA1206C080E32D
:1022700090E0B6010E94CA1211509116C0F39A94D0
:10228000F101E90DF11D808190E0B6010E94CA12B2
:102290009920A9F706C080E290E0B6010E94CA1218
:1022A000FA94FF20C1F795CCF6012681378102C050
:1022B0002FEF3FEFC90163960FB6F894DEBF0FBE54
:1022C000CDBFCF91DF911F910F91FF90EF90DF90E5
:1022D000CF90BF90AF909F908F907F906F905F90C6
:1022E0004F903F902F900895629FD001739FF0010F
:1022F000829FE00DF11D649FE00DF11D929FF00D96
:10230000839FF00D749FF00D659FF00D9927729FCC
:10231000B00DE11DF91F639FB00DE11DF91FBD0157
:10232000CF011124089597FB092E07260AD077FDC7
:1023300004D02ED006D000201AF4709561957F4FFE
:102340000895F6F7909581959F4F0895A1E21A2E72
:10235000AA1BBB1BFD010DC0AA1FBB1FEE1FFF1F49
:10236000A217B307E407F50720F0A21BB30BE40B99
:10237000F50B661F771F881F991F1A9469F76095E0
:102380007095809590959B01AC01BD01CF0108959A
:10239000AA1BBB1B51E107C0AA1FBB1FA617B7078B
:1023A00010F0A61BB70B881F991F5A95A9F78095A7
:1023B0009095BC01CD010895283008F027E033271F
:1023C000DA01990F311D87FD916000966105710555
:1023D00039F432602E5F3D9330E32A95E1F708959A
:1023E0009F3F30F080387105610509F03C5F3C5F2C
:1023F0003D93913008F08068911DDF93CF931F9338
:102400000F93FF92EF92192F987F9695E92F96954B
:102410009695E90FFF27E950FF4F99273327EE24C0
:10242000FF24A701E70105900894079428F4360FCC
:10243000E71EF81E491F511D660F771F881F991F41
:102440000694A1F70590079428F4E70EF81E491F9B
:10245000561FC11D770F881F991F661F0694A1F78D
:102460000590079428F4F80E491F561FC71FD11D69
:10247000880F991F661F771F0694A1F70590079490
:1024800020F4490F561FC71FD81F990F661F771FCB
:10249000881F0694A9F784911095177041F0D6957E
:1024A000C79557954795F794E7941A95C1F7EDE9C5
:1024B000F0E068941590159135916591959105908E
:1024C0007FE27395E118F10A430B560BC90BD00953
:1024D000C0F7E10CF11E431F561FC91FD01D7EF42B
:1024E000703311F48A95E6CFE894015030F0080F6C
:1024F0000AF40027021708F4202F2395022F7A33BD
:1025000028F079E37D932A95E9F710C07D932A9509
:1025100089F6069497956795379517951794E1185E
:10252000F10A430B560BC90BD00998F023957E9105
:1025300073957A3308F070E37C932013B8F77E919B
:1025400070617D9330F0839571E37D9370E32A95FC
:10255000E1F71124EF90FF900F911F91CF91DF9140
:10256000992787FD90950895FC0105906150704072
:102570000110D8F7809590958E0F9F1F0895FC014C
:102580006150704001900110D8F7809590958E0FA2
:102590009F1F08950F931F93CF93DF938C01EB013F
:1025A0008B8181FF1BC082FF0DC02E813F818C81FA
:1025B0009D812817390764F4E881F9810193F98333
:1025C000E88306C0E885F985802F0995009731F4E6
:1025D0008E819F8101969F838E8302C00FEF1FEF34
:1025E000C801DF91CF911F910F9108950F931F9311
:1025F000DF93CF93CDB7DEB72E970FB6F894DEBF3B
:102600000FBECDBF0D891E8986E08C831A83098396
:102610008FEF9FE79E838D839E01275E3F4FCE0104
:1026200001966F89788DA9010E94C50DEF81F8850B
:10263000E00FF11F10822E960FB6F894DEBF0FBE8A
:10264000CDBFCF91DF911F910F910895FA01AA2775
:10265000283051F1203181F1E8946F936E7F6E5FE5
:102660007F4F8F4F9F4FAF4FB1E03ED0B4E03CD093
:10267000670F781F891F9A1FA11D680F791F8A1F76
:10268000911DA11D6A0F711D811D911DA11D20D0DD
:1026900009F468943F912AE0269F11243019305D97
:1026A0003193DEF6CF010895462F4770405D419388
:1026B000B3E00FD0C9F7F6CF462F4F70405D4A33D5
:1026C00018F0495D31FD4052419302D0A9F7EACF9D
:1026D000B4E0A6959795879577956795BA95C9F7CC
:1026E00000976105710508959B01AC010A2E0694BF
:1026F0005795479537952795BA95C9F7620F731F78
:10270000841F951FA01D0895DC01CB01FC01E199F8
:10271000FECF06C0FFBBEEBBE09A31960DB20D9224
:1027200041505040B8F70895DC01CB0103C02D9112
:102730000E949F1341505040D0F70895262FE199F1
:10274000FECF9FBB8EBB2DBB0FB6F894E29AE19AE9
:0A2750000FBE01960895F894FFCF24
:10275A00466C6F6F722073656E736F722074657347
:10276A007400253032782020253032782020253018
:10277A0032782020253032780025332E31665600F3
:10278A00737570706C793A20002D2D20202D2D2024
:10279A00202D2D20202D2D20202D2D00000300007E
:1027AA000000000400005F00000E00070007001F81
:1027BA00147F147F141F242A7F2A121F23130864EC
:1027CA00621F36495522500600050300000E001C00
:1027DA002241000E0041221C001F14083E08141F4B
:1027EA0008083E08080600A06000000F080808084C
:1027FA00080600606000000E00601C03001F3E51C6
:10280A0049453E0E00427F40001F42615149461D24
:10281A002141454B311F1814127F101D274545458C
:10282A0039173C4A4949301E01710905031D3649C9
:10283A004949361D064949291E0600363600000652
:10284A0000AC6C00000F08142241000F1414141479
:10285A00141E00412214081F02015109061F3249A1
:10286A0079413E1F7C1211127C177F49494936175C
:10287A003E414141221F7F4141221C177F4949495C
:10288A0041177F09090901173E4149497A177F080B
:10289A0008087F0E00417F41001F2040413F011F71
:1028AA007F08142241177F404040401F7F020C02DC
:1028BA007F1F7F0408107F173E4141413E177F0961
:1028CA00090906173E414141BE1D7F0919294617CC
:1028DA0046494949311F01017F0101173F404040E4
:1028EA003F1F1F2040201F1F3F4038403F1F6314D7
:1028FA000814631F07087008071F61514945430EF2
:10290A00007F4141000E00031C60000E0041417F20
:10291A00000E04020102041F40404040400C000027
:10292A00030400172054545478177F484444381736
:10293A0038444444201D384444487F17385454547A
:10294A001817087E0901021718A4A4A478177F088B
:10295A000404780E00447D40000D4080847D000F01
:10296A007F102844000E00417F40001F7C04780439
:10297A0078177C0804047817384444443817FC2430
:10298A002424181718242424FC177C080404081784
:10299A00485454542017043F4440201D3C404020D2
:1029AA007C1F1C2040201C1F3C4030403C1F4428F8
:1029BA00102844171CA0A0A07C1F4464544C440E49
:1029CA0000083641000400007F00000E004136086E
:0E29DA00001F02010204021FAA55AA55AA00FE
:00000001FF
