:100000000C94CC000C94EB000C94EB000C94EB00E3
:100010000C94EB000C94EB000C94EB000C94EB00B4
:100020000C94EB000C94EB000C94EB000C94EB00A4
:100030000C94EB000C94EB000C94EB000C94EB0094
:100040000C94EB000C94E6020C94EB000C94EB0087
:100050000C94EB000C94EB000C94EB000C94EB0074
:100060000C94EB000C94EB000C94EB000C94EB0064
:100070000C94EB000C94EB000C94EB000C94EB0054
:100080000C94EB000C94EB000C94EB003135360033
:10009000322E3130006E616E00696E660000407A6B
:1000A00010F35A00A0724E18090010A5D4E8000001
:1000B000E87648170000E40B54020000CA9A3B009F
:1000C0000000E1F505000080969800000040420F16
:1000D000000000A08601000000102700000000E8DA
:1000E00003000000006400000000000A000000009F
:1000F000000100000000002C76D888DC674F082340
:10010000DFC1DFAE59E1B1B796E5E3E453C63AE6A5
:1001100051997696E8E6C28426EB898C9B62ED4085
:100120007C6FFCEFBC9C9F40F2BAA56FA5F49005D4
:100130005A2AF75C936B6CF9676DC11BFCE0E40D08
:1001400047FEF520E6B500D0ED902E0300943577FC
:10015000050080841E080000204E0A000000C80C24
:10016000333333330F986E12831141EF8D2114898D
:100170003BE65516CFFEE6DB18D1844B381BF77CE7
:100180001D901DA4BBE424203284725E228100C92C
:10019000F124ECA1E53D270011241FBECFEFD0E1F3
:1001A000DEBFCDBF13E0A0E0B1E0E4E8F4E200E0A0
:1001B0000BBF02C007900D92AE34B107D9F713E020
:1001C000AEE4B3E001C01D92AC3FB107E1F70E947D
:1001D000ED000C9440120C9400007F928F929F923D
:1001E000AF92BF92CF92DF92EF92FF920F931F9345
:1001F000DF93CF93CDB7DEB764970FB6F894DEBF29
:100200000FBECDBF78940E942A0B0E94DE020E948E
:1002100059020E9478048EE360E00E94B70481E0F6
:100220000E94D00380E091E00E94390980E00E94A2
:10023000D00385E060E00E94B70482E50E94C00818
:1002400086E760E00E94B7048CE40E94C00882E365
:1002500090E00E94B7020E94A70A85E066E047E0AE
:100260000E94540A00E010E020E1722E95E0A92ED1
:10027000B12CAC0EBD1E7E010894E11CF11C87E080
:10028000882E81E0982E8AE090E00E94B7021982C1
:100290001A821B821C82F501872D11928A95E9F73B
:1002A0000E94220BEDB7FEB738970FB6F894FEBF49
:1002B0000FBEEDBFCDB6DEB60894C11CD11CF282D4
:1002C000E182F601938282826091F8037091F903D2
:1002D00080E090E00E94D10B29EB3CEF47E85CE323
:1002E0000E945F0C2CEE31E548E95FE30E946C0B45
:1002F000F60164837583868397830E94B2118DB75C
:100300009EB708960FB6F8949EBF0FBE8DBF89E1C9
:1003100060E00E94B704C7010E9439090F5F1F4FB8
:1003200091E000391907C1F0E1E001391E072CF412
:10033000083C110509F0A7CF0AC0F2E008351F07F5
:1003400071F083E00032180709F09DCF0FC084E1FF
:1003500090E064E170E007C00E94F50994CF8CEE54
:100360009FEF6CEE7FEF0E94110A8DCF0E94F5097E
:1003700000E010E088CF90916500282F30E080E009
:10038000A9014170507020FF81E09E7F982B9093CF
:100390006500809165004115510511F490E001C0A0
:1003A00092E08D7F892B809365008091650021FD0F
:1003B00002C090E001C098E0877F892B80936500A0
:1003C000809165008F7E809365008FEF8ABB6BBB49
:1003D00085E0982F9A95F1F790916500946090933D
:1003E0006500982F9A95F1F7909165009B7F909307
:1003F00065008A95F1F71BBA1ABA089590916500C5
:10040000282F30E080E0A9014170507020FF81E08A
:100410009E7F982B90936500809165004115510552
:1004200011F490E001C092E08D7F892B80936500EC
:100430008091650021FD02C090E001C098E0877FB7
:10044000892B8093650080916500806180936500B1
:100450001ABA25E0822F8A95F1F7809165008460B1
:100460008093650085E18A95F1F789B390916500E5
:100470009B7F90936500922F9A95F1F708951F93B3
:10048000CF93DF9390914E03992371F0182F117041
:10049000CFEFDFEF812F0E94FE01219787FD02C081
:1004A00081E003C02097B1F780E0DF91CF911F91E9
:1004B00008958FEF80934E0380916400886080934D
:1004C0006400809164008061809364008091640086
:1004D00084608093640080916400816080936400F4
:1004E00080916400826080936400B89A1ABA809107
:1004F0006500877F80936500809165008F7E809383
:100500006500809165008B7F809365008091650018
:100510008E7F80936500809165008D7F809365005C
:10052000C098979B07C0979880EA9FE00197F1F7E2
:10053000979A04C080EA9FE00197F1F7C09A80E0A3
:100540000E943F02882351F081E00E943F028823ED
:1005500011F082E001C081E080934E0380914E0350
:100560008F3F11F410924E0380914E03089520EABC
:100570003FE004C0F9013197F1F701970097D1F7F7
:10058000089510928B0380936C03982F9F5F909334
:100590006E0396E990938C03F89403C0789400005E
:1005A000F894B09BFBCF90EC9DB98FB996E9982752
:1005B00090938A03779A789480E00895B898C098C9
:1005C000BB9AC39A80E00E94C10208951F920F92C5
:1005D0000FB60F920BB60F9211242F933F934F93A8
:1005E0005F936F937F938F939F93AF93BF93EF939B
:1005F000FF939FB120918C03292720938C03809136
:100600008B038823B1F490936A039C3130F01092ED
:100610006C0310926A0391E009C0492F50E02091C9
:100620006E0330E042175307FCF09F5F90936E0318
:100630001BC0482F50E060916A0370E06417750793
:100640002CF042595C4FFA0190830EC0415050404B
:100650004617570749F4222339F090916B039F5FA7
:1006600090936B0310926A0390916C03891750F476
:10067000E82FF0E0E15BFC4F20812FB990918A03D5
:10068000922711C0891731F490918A039FB9109273
:100690008A030BC090916E03891758F49FEF9FB99E
:1006A00090918A03909590938A038F5F80938B0338
:1006B00011C0B898C0981DB8B898C09880916D03C3
:1006C0008F5F80936D03789480916A030E94CC0AB7
:1006D0000E94C102FF91EF91BF91AF919F918F91C5
:1006E0007F916F915F914F913F912F910F900BBE32
:1006F0000F900FBE0F901F90189580919003089552
:1007000080919903089580938D030895982F9052B6
:10071000903608F080E8805290E0FC01EE0FFF1F59
:10072000E80FF91FEE0FFF1FE25FFE4F90818091EF
:100730008F03882309F49FE180E020E090FD8F5F24
:100740002F5F253011F09695F9CF08951F93CF9321
:10075000DF93EC0110E005C021960E9486038F5FB5
:10076000180F88818823C1F7812FDF91CF911F91C6
:1007700008951F93CF93DF93EC0110E007C02196FB
:10078000F90184910E9486038F5F180F9E01FE017C
:1007900094919923A1F7812FDF91CF911F91089513
:1007A00080938F03089580918F030895863130F4EC
:1007B000683020F460938E0380939A0308950F931A
:1007C0001F93DF93CF930F92CDB7DEB7182F6854E6
:1007D000883018F580E069830E943F0280E06981DB
:1007E0000E94BB0180E00E943F02612F660F660FEE
:1007F000660F605C80E00E94BB0101E913E082E0CB
:100800000E943F0282E0F80161918F010E94BB01CA
:10081000F3E009391F0799F723C0185081E0698375
:100820000E943F0281E069810E94BB0181E00E9439
:100830003F02612F660F660F660F605C81E00E94C9
:10084000BB0101E913E083E00E943F0283E0F8016D
:1008500061918F010E94BB01F3E009391F0799F7ED
:100860000F90CF91DF911F910F910895FF920F93F9
:100870001F93F82E18EB80E00E943F0281E00E9457
:100880003F0280E0612F0E94BB0181E0612F0E9446
:10089000BB0100E082E00E943F0283E00E943F0231
:1008A00082E06F2D0E94BB0183E06F2D0E94BB018F
:1008B0000F5F003479F71F5F103CE9F680E00E947B
:1008C0003F0281E00E943F0280E068EB0E94BB0192
:1008D00081E068EB0E94BB011F910F91FF9008958A
:1008E00080E00E94360410928E0310929A030895BD
:1008F00080E00E943F0280E06FE30E94BB0180E045
:100900000E943F0280E060EC0E94BB0180E00E94F8
:100910003F0280E060E40E94BB0180E00E943F0251
:1009200080E068EB0E94BB0181E00E943F0281E011
:100930006FE30E94BB0181E00E943F0281E060EC16
:100940000E94BB0181E00E943F0281E060E40E94BE
:10095000BB0181E00E943F0281E068EB0E94BB0185
:1009600080E00E94360481E080938D0308950F9308
:100970001F93182F062F809390036093990380E0B4
:100980000E943F0281E00E943F020695069506956F
:10099000085480E0602F0E94BB0181E0602F0E941C
:1009A000BB0180E00E943F0281E00E943F021134BF
:1009B00038F080E060E40E94BB0181E0612F07C055
:1009C000612F605C80E00E94BB0181E060E40E94D6
:1009D000BB011F910F910895EF92FF920F931F9308
:1009E000CF93DF9319EB47C00830E8F480E00E9412
:1009F0003F0280E0612F0E94BB0180E00E943F0225
:100A00006F2D605C80E00E94BB0182E00E94FE01CD
:100A1000C1E9D3E082E00E94FE01899383E0C939F5
:100A2000D807C1F71BC081E00E943F0281E0612F1F
:100A30000E94BB0181E00E943F0281E06F2D0E9475
:100A4000BB0183E00E94FE01C1E9D3E083E00E9484
:100A5000FE01899383E0C939D807C1F7802F6E2D35
:100A60000E94DF030F5F88E0F80E003109F0BCCF71
:100A70001F5F103C31F0FF2400E037E4E32EE10E6D
:100A8000B3CFE1E9F3E0119283E0E939F807D9F750
:100A900010E0812F67E00E94DF031F5F1031C9F76C
:100AA00080918E03882319F0815080938E03DF910B
:100AB000CF911F910F91FF90EF900895EF92FF92C9
:100AC0000F931F93E82E162F8091900387FD39C056
:100AD00000E0803408F001E0802F0E943F0242E0F5
:100AE000F42EF00E8F2D0E94FE018F2D0E94FE012C
:100AF00090918D0392FF02C0E0949B7FE1229923A5
:100B000019F41E2D182B08C0913021F410951823CC
:100B10001E2902C01E2D1827802F0E943F026091BF
:100B200090036064802F0E94BB01802F0E943F02CF
:100B30008F2D612F0E94BB01809190038F5F809366
:100B400090031F910F91FF90EF900895909199035A
:100B5000977061E070E002C0660F771F9A95E2F728
:100B6000882311F0862F02C0862F60E00E945E0568
:100B700008952F923F924F925F926F927F928F9241
:100B80009F92AF92BF92CF92DF92EF92FF920F931C
:100B90001F93DF93CF9300D000D000D0CDB7DEB746
:100BA000082F162F5A83498360909003E090990391
:100BB0008E2D87702FEF30E0F22E01C0FF0C8A954A
:100BC000EAF7802F90E0019768E070E00E947110D2
:100BD0006F5FA62EBB24C50173E0880F991F7A951D
:100BE000E1F744245524481A590ACC2468E0762EAB
:100BF0005FEF852E912CBC82AB8271C08E2D8770E9
:100C0000D72CD81A1D1548F48D2D811B940102C0D4
:100C1000359527958A95E2F7F2228D2D8C0D90E07F
:100C20008A9D10018B9D300C9A9D300C112480E020
:100C300090E09E838D8343C04D815E8147705070EC
:100C40004115510571F5E695E695E695C1018E0FC2
:100C5000911DFC01A981BA81EA0FFB1FE40DF51D6E
:100C600020E030E06D817E819491A1E9B3E08C9128
:100C700086958C9390FF02C080688C93119683E0D8
:100C8000A939B80711F09695F2CF2F5F3F4F283062
:100C9000310529F0AB81BC81EA0FFB1FE5CF7E83D4
:100CA0006D834F565C4FFA0180818F216F2D0E941A
:100CB0005E052D813E812F5F3F4F3E832D83ED8169
:100CC000E01708F4B9CF1D1508F4D12E1D19ED0C4D
:100CD000CD0C862D6E2D0E94B704FF24FA941123AB
:100CE00009F08CCF26960FB6F894DEBF0FBECDBFAD
:100CF000CF91DF911F910F91FF90EF90DF90CF90F8
:100D0000BF90AF909F908F907F906F905F904F902B
:100D10003F902F9008952F923F924F925F926F9243
:100D20007F928F929F92AF92BF92CF92DF92EF927B
:100D3000FF920F931F93DF93CF9300D000D000D08A
:100D4000CDB7DEB7082F162F5A83498360909003E2
:100D5000E09099038E2D87702FEF30E0F22E01C0C6
:100D6000FF0C8A95EAF7802F90E0019768E070E029
:100D70000E9471106F5FA62EBB24C501A3E0880FEF
:100D8000991FAA95E1F744245524481A590ACC24FE
:100D9000F8E07F2EEFEF8E2E912CBC82AB8271C0DB
:100DA0008E2D8770D72CD81A1D1548F48D2D811BD8
:100DB000940102C0359527958A95E2F7F2228D2D90
:100DC0008C0D90E08A9D10018B9D300C9A9D300C0B
:100DD000112480E090E09E838D8343C04D815E812D
:100DE000477050704115510571F5E695E695E69509
:100DF000C1018E0F911DFC01A981BA81EA0FFB1F71
:100E0000E40DF51D20E030E06D817E819081A1E947
:100E1000B3E08C9186958C9390FF02C080688C9390
:100E2000119683E0A939B80711F09695F2CF2F5F9C
:100E30003F4F2830310529F0AB81BC81EA0FFB1F01
:100E4000E5CF7E836D834F565C4FFA0180818F2101
:100E50006F2D0E945E052D813E812F5F3F4F3E83A7
:100E60002D83ED81E01708F4B9CF1D1508F4D12EBC
:100E70001D19ED0CCD0C862D6E2D0E94B704FF249C
:100E8000FA94112309F08CCF26960FB6F894DEBFA2
:100E90000FBECDBFCF91DF911F910F91FF90EF90CB
:100EA000DF90CF90BF90AF909F908F907F906F908A
:100EB0005F904F903F902F900895AF92BF92CF9246
:100EC000DF92EF92FF920F931F93CF93DF93A82EA1
:100ED000162FB0909003F09099038F2D87702FEF0D
:100EE00030E0022F01C0000F8A95EAF7B8E0CB2E60
:100EF000CFEFD0E022C08F2D8770EC2CE81A1E15A2
:100F000048F48E2D811B9E0102C0359527958A9548
:100F1000E2F70223DA2C05C0802F602F0E945E05C5
:100F2000DA94DD20C9F71E1508F4E12E1E19FE0C17
:100F30008B2D6F2D0E94B7040FEF1123E1F6DF9187
:100F4000CF911F910F91FF90EF90DF90CF90BF90C6
:100F5000AF900895682F81E00E945D0708950F9378
:100F60001F93182F80919903877021E030E0022FA2
:100F700001C0000F8A95EAF705C0802F602F0E94FC
:100F80005E0511501123C9F71F910F9108959F928B
:100F9000AF92BF92CF92DF92EF92FF920F931F9387
:100FA000082F162FF0909003E09099038F1561F4AD
:100FB000E61618F4862F8E1904C00E94B7048E2DF1
:100FC000811B0E94AA075EC0DE2C6E1559F4F8162C
:100FD00010F48F1904C00E94B7048F2D801B0E944B
:100FE000AF0750C08F1528F4AF2CA81A99249A94F3
:100FF00009C0F81618F09924AA2404C0A82EAF1826
:10100000992493941E1528F4BE2CB11ACC24CA94AA
:1010100009C0E11618F0CC24BB2404C0B12EBE18C0
:10102000CC24C39481E00E94A605BA14B0F4EA2C43
:10103000E694E194F90CEB0C1E1414F4EA18DC0CA1
:101040008F2D6D2D0E94B70481E00E94A605F90C3A
:101050008F2D8919801779F715C0DB2CD694D19480
:10106000EC0CDA0C1D1414F4DB18F90C8F2D6E2D1A
:101070000E94B70481E00E94A605EC0C8E2D8C190D
:10108000811779F7802F612F0E94B7041F910F916C
:10109000FF90EF90DF90CF90BF90AF909F9008951A
:1010A0008F929F92AF92BF92CF92DF92EF92FF9278
:1010B0000F931F93CF93DF93062F982F9052903664
:1010C00008F080E8805296E0899FE0011124C25F19
:1010D000DE4F188180918F03882309F41FE1E02EF1
:1010E000FF24E7FCF0948FEF90E06C010E2C02C01F
:1010F000CC0CDD1C0A94E2F7AA24BB24AE18BF086E
:101100000A2C02C0959587950A94E2F7D82E85E0BF
:10111000882E912C8C0E9D1E10FF16C0898107FD14
:1011200009C090E00E2C02C0880F991F0A94E2F7C4
:101130006C2D08C090E00A2C02C0959587950A9402
:10114000E2F76D2D0E945E052196C815D90511F0B4
:101150001695E2CF07FD03C080E06C2D02C080E051
:101160006D2D0E945E05DF91CF911F910F91FF9031
:10117000EF90DF90CF90BF90AF909F908F900895A9
:10118000FF920F931F93082FF090900310919903F3
:101190001770612F0E945008112391F060919903FC
:1011A000685F8F2D0E94B704612F6850802F0E94C6
:1011B0005008609199036850809190030E94B70491
:1011C0001F910F91FF9008951F93CF93DF93EC0130
:1011D00010928F0336C01A3069F410929A038091EE
:1011E0008E038F5F80938E03883059F581E00E94D3
:1011F000EC0427C01D3029F180919A03853160F0FD
:1012000010929A0380918E038F5F80938E038830B3
:1012100019F481E00E94EC0490919A03892F880FC1
:10122000890F60918E03660F660F660F880F0E940C
:10123000B704812F0E94C00880919A038F5F80932A
:101240009A031991112339F6DF91CF911F910895D7
:10125000CF93DF93EC0105C02196F90184910E94A0
:10126000C0089E01FE0194919923B1F7DF91CF91BF
:101270000895CF93DF93EC0103C021960E94C0082C
:1012800088818823D1F7DF91CF91089590E0282FAE
:1012900030E0F90183E0EE0FFF1F8A95E1F7E21BD2
:1012A000F30BEF55FC4F80818F3F09F091E0892FC0
:1012B0000895F8949091D90380E0E9EDF3E022914C
:1012C000820F911D9093BB038093BA03938180E0BA
:1012D0002281820F911D9093BD038093BC03958161
:1012E00080E02481820F911D9093BF038093BE0301
:1012F000978180E02681820F911D9093C103809396
:10130000C003918580E02085820F911D9093C303D7
:101310008093C2037894F8942091E20380919D0316
:1013200090919E03820F911D3091E30320E0820F84
:10133000931F9093B7038093B6032091E4038091A9
:101340009B0390919C03820F911D3091E50320E057
:10135000820F931F9093CF038093CE039091E70366
:1013600080E02091E603820F911D9093F703809314
:10137000F6039091E90380E02091E803820F911D2C
:101380009093CD038093CC039091EB0380E0209168
:10139000EA03820F911D9093A00380939F03909185
:1013A000ED0380E02091EC03820F911D9093D70311
:1013B0008093D6037894F8949091F00380E0209184
:1013C000EF03820F911D9093B9038093B80390911E
:1013D000F20380E02091F103820F911D9093F403BA
:1013E0008093F303789481E00895F89481E08093EA
:1013F000A10378940895F8948AE08093A1037894E7
:1014000081E00895F89425E02093A1038093A2033E
:101410009093A3036093A4037093A503789481E051
:101420000895F89422E02093A1038093A20390935F
:10143000A3036093A4037093A503789481E00895B7
:1014400020919D0330919E03FC01E21BF30B9F0151
:1014500080919B0390919C03681B790BF89483E027
:101460008093A103E093A2033093A3036093A403AA
:101470007093A5034093A6035093A703789481E04B
:101480000895F89424E02093A1038093A2039093FD
:10149000A3036093A4037093A5034093A603509302
:1014A000A703789481E0089578949091AF0320E1A8
:1014B00037E22150304011F09F3FD9F7F89496E081
:1014C0009093AF038093B0036093B1034093B20352
:1014D000789481E0089581E00895F8943091E503CF
:1014E00020E04091E403F901E40FF11DAF013091D8
:1014F000E30320E0E091E2032E0F311DFC01E21B2B
:10150000F30BF0939E03E0939D039B01241B350B8B
:1015100030939C0320939B039093B7038093B6036F
:101520007093CF036093CE03789481E0089578940C
:101530002091A80380E197E2019711F02F3FE1F796
:10154000F89488E08093A803789481E008957894D3
:101550002091A80380E197E2019711F02F3FE1F776
:10156000F89487E08093A803789481E008957894B4
:101570004091A80320E137E22150304011F04F3F65
:10158000D9F7F89429E02093A8038093A9039093B6
:10159000AA03789481E008959091F5039F5F90935A
:1015A000F5038B3141F4A8EDB3E0EFE6F3E00190F1
:1015B0000D928150E1F78FEF80935D038093560386
:1015C00080934F038091A1038F3F11F480E00DC001
:1015D000AFE4B3E0E1EAF3E087E001900D928150DF
:1015E000E1F78FEF8093A10387E09091A8039F3FDD
:1015F00079F0E82FF0E0E15BFC4FA8EAB3E097E078
:101600000D9001929150E1F79FEF9093A803895FAD
:101610009091AF039F3F81F0E82FF0E0E15BFC4F3A
:10162000AFEAB3E087E00D9001928150E1F78FEFD0
:101630008093AF0385E10895882311F487E008952E
:1016400085E1089587E00E94490B9093F903809308
:10165000F80308958F9A97988AE090E00E94B70265
:10166000979A84E690E00E94B7020895E1E6F0E0E0
:10167000908121E030E002C0220F331F8A95E2F70B
:10168000209592239083E2E6F0E08081822380839C
:10169000089590E497B997B18770892B87B987EC43
:1016A00086B901C000003699FDCF84B195B1392FBC
:1016B00020E0280F311D8091FA039091FB03820FE7
:1016C000931F9093FB038093FA03C90108958091BF
:1016D000FA039091FB0308955058BB27AA270ED018
:1016E000B4C0A5D030F0AAD020F031F49F3F11F45F
:1016F0001EF49AC00EF4E095E7FB90C0E92FB6D037
:1017000080F3BA17620773078407950718F071F41E
:101710009EF5CEC00EF4E0950B2EBA2FA02D0B0136
:10172000B90190010C01CA01A0011124FF27591B26
:1017300099F0593F50F4503E68F11A16F040A22F2C
:10174000232F342F4427585FF3CF4695379527959D
:10175000A795F0405395C9F77EF41F16BA0B620B9C
:10176000730B840BBAF09150A1F0FF0FBB1F661FE3
:10177000771F881FC2F70EC0BA0F621F731F841F26
:1017800048F4879577956795B795F7959E3F08F04C
:10179000B3CF9395880F08F09927EE0F979587950B
:1017A0000895E89409C097FB3EF490958095709554
:1017B00061957F4F8F4F9F4F9923A9F0F92F96E99D
:1017C000BB279395F695879577956795B795F11112
:1017D000F8CFFAF4BB0F11F460FF1BC06F5F7F4FAF
:1017E0008F4F9F4F16C0882311F096E911C07723C1
:1017F00021F09EE8872F762F05C0662371F096E8CA
:10180000862F70E060E02AF09A95660F771F881F98
:10181000DAF7880F9695879597F9089597F99F6756
:1018200080E870E060E008959FEF80EC0895002468
:101830000A941616170618060906089500240A9435
:1018400012161306140605060895092E0394000CBB
:1018500011F4882352F0BB0F40F4BF2B11F460FF4A
:1018600004C06F5F7F4F8F4F9F4F089557FD905873
:10187000440F551F59F05F3F71F04795880F97FB54
:10188000991F61F09F3F79F087950895121613060E
:101890001406551FF2CF4695F1DF08C0161617063D
:1018A0001806991FF1CF8695710561050894089572
:1018B000E894BB2766277727CB0197F908950BD0CB
:1018C000C4CFB5DF28F0BADF18F0952309F0A6CF12
:1018D000ABCF1124EECFCADFA0F3959FD1F3950FC4
:1018E00050E0551F629FF001729FBB27F00DB11DA4
:1018F000639FAA27F00DB11DAA1F649F6627B00D34
:10190000A11D661F829F2227B00DA11D621F739F1C
:10191000B00DA11D621F839FA00D611D221F749F2A
:101920003327A00D611D231F849F600D211D822F71
:10193000762F6A2F11249F5750408AF0E1F08823B8
:101940004AF0EE0FFF1FBB1F661F771F881F9150C5
:101950005040A9F79E3F510570F060CFAACF5F3F7E
:10196000ECF3983EDCF3869577956795B795F795F8
:10197000E7959F5FC1F7FE2B880F911D9695879580
:1019800097F908952F923F924F925F926F927F92B4
:101990008F929F92AF92BF92CF92DF92EF92FF927F
:1019A0000F931F93DF93CF93CDB7DEB763970FB637
:1019B000F894DEBF0FBECDBF6C017F876E87FC0140
:1019C00017821682838181FD04C06FC34C855D85BB
:1019D00004C01E010894211C311CF6019381EE8580
:1019E000FF8593FD859193FF8191FF87EE87882383
:1019F00009F457C3853241F493FD859193FF81919A
:101A0000FF87EE87853259F490E0B6014A8B5B8BF5
:101A10000E9486114A895B895D874C87D7CF10E089
:101A2000FF2400E00032B0F48B3269F08C3228F4ED
:101A3000803251F0833271F40BC08D3239F0803333
:101A400049F401602CC00260046029C0086027C00E
:101A5000006125C007FD2EC0282F20532A3098F49E
:101A600006FF08C0812F880F182F110F110F180FB4
:101A7000120F15C08F2D880FF82EFF0CFF0CF80EDB
:101A8000F20E00620CC08E3221F406FD0AC300641F
:101A900006C08C3611F4006802C0883659F4EE8511
:101AA000FF8593FD859193FF8191FF87EE878823C2
:101AB00009F0B8CF982F9554933018F40061805EE8
:101AC00006C0982F9556933008F09BC10F7E06FFF5
:101AD00016E06FE3E62EE022853619F4F0E4EF2AF3
:101AE00007C0863619F420E8E22A02C0111111500D
:101AF000E7FE06C01C3340F4912E939427E00BC000
:101B0000183030F4212F06C027E03CE3932E03C0A9
:101B100027E017E09924CA0104969D878C87FA0173
:101B20006081718182819381A101092D0E949810A9
:101B30005C016980262D30E0398B288B60FE03C064
:101B4000388933FF06C0E1FC06C0E2FE06C000E2B1
:101B500005C00DE203C00BE201C000E0888999894D
:101B60008C7090700097C1F1002311F084E001C0E7
:101B700083E08F1558F4F81AE3FC09C080E290E086
:101B8000B6010E948611FA94C9F701C0FF24002310
:101B900029F0802F90E0B6010E948611888983FD8C
:101BA00003C009E910E00EC005E910E00BC0A11464
:101BB000B10409F0805290E0B6010E9486110F5FD7
:101BC0001F4F05C0AE2CBB2490E1A922BB24F80115
:101BD0008491882361F762C2E7FE0EC09A0CF889EF
:101BE000F4FF04C08A81813309F49A94191454F5DE
:101BF000292D293050F52DC0E6FC2BC0812F90E017
:101C00008A159B054CF03CEFA3163FEFB30624F07A
:101C100080E8E82A01C01150112349F0E2E0F0E029
:101C2000EC0FFD1FE10FF11D80818033A1F3E7FE72
:101C300010C0912E9394812F90E0A816B90644F419
:101C40001A1907C09924939404C098E0992E01C0F2
:101C500010E0E7FE07C01A141B043CF495012F5F47
:101C60003F4F05C025E030E002C021E030E0002316
:101C700011F02F5F3F4F112329F0812F90E0019643
:101C8000280F391F8F2D90E02817390714F4F21A06
:101C900001C0FF244E2C5524C2018970907000971A
:101CA00049F406C080E290E0B6010E948611FA94E1
:101CB000FF20C1F7002329F0802F90E0B6010E9499
:101CC000861143FC09C006C080E390E0B6010E9483
:101CD0008611FA94FF20C1F7E7FE46C03501B7FE32
:101CE00002C06624772425010894411C511C461823
:101CF0005708420C531CF501E919F1094F01812FD6
:101D000090E000271127081B190BFFEF6F16FFEF5C
:101D10007F0629F48EE290E0B6010E948611A61497
:101D2000B70434F0861497041CF4F201808101C0DA
:101D300080E30894610871080894411C511C6016E6
:101D400071062CF090E0B6010E948611DECF6A1475
:101D50007B0441F49A81963320F4953319F4F88981
:101D6000F4FF81E390E049C08A81813311F02FEEC6
:101D7000622290E0B6010E948611112389F08EE262
:101D800090E0B6010E94861102E0F101E00FF11D22
:101D90000F5F808190E0B6010E9486111150A9F773
:101DA00044FE03C085E490E002C085E690E0B60101
:101DB0000E948611B7FC05C0A114B10441F464FE71
:101DC00006C0B094A194B108B3948DE201C08BE237
:101DD00090E0B6010E94861180E305C08F5FE6EFB8
:101DE000FFEFAE0EBF1EFAE0AF16B104BCF790E0F5
:101DF000B6010E948611C501C096B6010E948611E7
:101E00004DC1833631F0833789F0833509F059C0ED
:101E100022C09A012E5F3F4F3D872C87FA018081B7
:101E20008983310181E0A82EB12C13C09A012E5F65
:101E30003F4F3D872C87FA016080718006FF03C009
:101E4000612F70E002C06FEF7FEFC3010E947B1132
:101E50005C010F7714C09A012E5F3F4F3D872C879E
:101E6000FA016080718006FF03C0612F70E002C03C
:101E70006FEF7FEFC3010E9470115C01006803FDEA
:101E80001CC006C080E290E0B6010E948611FA9460
:101E90008F2D90E0A816B906A8F30FC0F30107FD37
:101EA000859107FF81913F0190E0B6010E94861164
:101EB000F110FA940894A108B108A114B10471F7C3
:101EC000EDC0843611F0893661F507FF0BC09A0129
:101ED0002C5F3F4F3D872C87FA01608171818281A1
:101EE00093810CC09A012E5F3F4F3D872C87FA01EA
:101EF00060817181882777FD8095982F0F7697FFF5
:101F000008C090958095709561957F4F8F4F9F4F3A
:101F10000068A1012AE030E00E94E211982E921898
:101F200041C0853721F40F7E2AE030E020C0097FD0
:101F30008F36A9F0803720F4883509F0B2C00BC085
:101F4000803721F0883709F0ACC001C0006104FF80
:101F500009C0046007C004FF08C0066006C028E08E
:101F600030E005C020E130E002C020E132E007FFB0
:101F70000AC0CA0104969D878C87FA01608171812D
:101F80008281938109C0CA0102969D878C87FA01DC
:101F90006081718180E090E0A1010E94E211982EA1
:101FA00092180F7706FF09C00E7F911630F404FFD8
:101FB00006C002FD04C00F7E02C0E92C01C0E12E64
:101FC000802F90E004FF0CC0FE01E90DF11D20817F
:101FD000203311F4097E09C0E39402FF06C004C057
:101FE00086789070009709F0E394A02EBB2403FD3F
:101FF00014C000FF0FC0EF1428F4192D1F0D1E1977
:10200000EF2C08C0192D06C080E290E0B6010E94B6
:102010008611E394EF14C0F304C0EF1410F4FE181B
:1020200001C0FF24A4FE0FC080E390E0B6010E942F
:102030008611A2FE1FC0A1FE03C088E590E010C07B
:1020400088E790E00DC0C50186789070009791F008
:10205000A1FC02C080E201C08BE207FD8DE290E0AE
:10206000B6010E94861106C080E390E0B6010E948E
:10207000861111509116C0F39A94F101E90DF11DEA
:10208000808190E0B6010E9486119920A9F706C0D0
:1020900080E290E0B6010E948611FA94FF20C1F719
:1020A00095CCF6012681378102C02FEF3FEFC901A1
:1020B00063960FB6F894DEBF0FBECDBFCF91DF9110
:1020C0001F910F91FF90EF90DF90CF90BF90AF9056
:1020D0009F908F907F906F905F904F903F902F9048
:1020E000089597FB092E07260AD077FD04D00CD05F
:1020F00006D000201AF4709561957F4F0895F6F789
:10210000909581959F4F0895AA1BBB1B51E107C075
:10211000AA1FBB1FA617B70710F0A61BB70B881F77
:10212000991F5A95A9F780959095BC01CD01089506
:10213000283008F027E03327DA01990F311D87FD99
:10214000916000966105710539F432602E5F3D9310
:1021500030E32A95E1F708959F3F30F0803871050C
:10216000610509F03C5F3C5F3D93913008F0806869
:10217000911DDF93CF931F930F93FF92EF92192F2F
:10218000987F9695E92F96959695E90FFF27E95048
:10219000FF4F99273327EE24FF24A701E70105907D
:1021A0000894079428F4360FE71EF81E491F511DA6
:1021B000660F771F881F991F0694A1F70590079453
:1021C00028F4E70EF81E491F561FC11D770F881F00
:1021D000991F661F0694A1F70590079428F4F80E3E
:1021E000491F561FC71FD11D880F991F661F771FD4
:1021F0000694A1F70590079420F4490F561FC71FB6
:10220000D81F990F661F771F881F0694A9F784911E
:102210001095177041F0D695C79557954795F79447
:10222000E7941A95C1F7EDE9F0E0689415901591DF
:1022300035916591959105907FE27395E118F10ACA
:10224000430B560BC90BD009C0F7E10CF11E431F1D
:10225000561FC91FD01D7EF4703311F48A95E6CF46
:10226000E894015030F0080F0AF40027021708F430
:10227000202F2395022F7A3328F079E37D932A9536
:10228000E9F710C07D932A9589F60694979567958E
:10229000379517951794E118F10A430B560BC90BA4
:1022A000D00998F023957E9173957A3308F070E306
:1022B0007C932013B8F77E9170617D9330F0839505
:1022C00071E37D9370E32A95E1F71124EF90FF907D
:1022D0000F911F91CF91DF91992787FD90950895D8
:1022E000FC010590615070400110D8F780959095E1
:1022F0008E0F9F1F0895FC016150704001900110E6
:10230000D8F7809590958E0F9F1F08950F931F9378
:10231000CF93DF938C01EB018B8181FF1BC082FF88
:102320000DC02E813F818C819D812817390764F46F
:10233000E881F9810193F983E88306C0E885F9858E
:10234000802F0995009731F48E819F8101969F839C
:102350008E8302C00FEF1FEFC801DF91CF911F9155
:102360000F9108950F931F93DF93CF93CDB7DEB7EF
:102370002E970FB6F894DEBF0FBECDBF0D891E8914
:1023800086E08C831A8309838FEF9FE79E838D837A
:102390009E01275E3F4FCE0101966F89788DA9017E
:1023A0000E94C20CEF81F885E00FF11F10822E967B
:1023B0000FB6F894DEBF0FBECDBFCF91DF911F9156
:1023C0000F910895FA01AA27283051F1203181F1A7
:1023D000E8946F936E7F6E5F7F4F8F4F9F4FAF4F2D
:1023E000B1E03ED0B4E03CD0670F781F891F9A1F40
:1023F000A11D680F791F8A1F911DA11D6A0F711DF4
:10240000811D911DA11D20D009F468943F912AE0FF
:10241000269F11243019305D3193DEF6CF010895E7
:10242000462F4770405D4193B3E00FD0C9F7F6CF18
:10243000462F4F70405D4A3318F0495D31FD4052E0
:10244000419302D0A9F7EACFB4E0A6959795879576
:1024500077956795BA95C9F7009761057105089555
:102460009B01AC010A2E0694579547953795279501
:10247000BA95C9F7620F731F841F951FA01D089599
:04248000F894FFCFFE
:102484006D6F74696F6E0025332E3166560003003C
:10249400000000000400005F00000E0007000700B9
:1024A4001F147F147F141F242A7F2A121F2313084A
:1024B40064621F36495522500600050300000E00D1
:1024C4001C2241000E0041221C001F14083E081467
:1024D4001F08083E08080600A06000000F0808084E
:1024E40008080600606000000E00601C03001F3E28
:1024F4005149453E0E00427F40001F42615149460A
:102504001D2141454B311F1814127F101D274545CD
:102514004539173C4A4949301E01710905031D36E6
:10252400494949361D064949291E06003636000028
:102534000600AC6C00000F08142241000F141414A0
:1025440014141E00412214081F02015109061F32EF
:102554004979413E1F7C1211127C177F4949493643
:10256400173E414141221F7F4141221C177F4949A7
:102574004941177F09090901173E4149497A177FE3
:102584000808087F0E00417F41001F2040413F01A1
:102594001F7F08142241177F404040401F7F020CD8
:1025A400027F1F7F0408107F173E4141413E177F81
:1025B40009090906173E414141BE1D7F09192946F3
:1025C4001746494949311F01017F0101173F404026
:1025D400403F1F1F2040201F1F3F4038403F1F63C4
:1025E400140814631F07087008071F615149454305
:1025F4000E007F4141000E00031C60000E004141AB
:102604007F000E04020102041F40404040400C00C1
:1026140000030400172054545478177F4844443866
:102624001738444444201D384444487F17385454D0
:10263400541817087E0901021718A4A4A478177F58
:10264400080404780E00447D40000D4080847D0021
:102654000F7F102844000E00417F40001F7C047847
:102664000478177C0804047817384444443817FC69
:10267400242424181718242424FC177C0804040890
:1026840017485454542017043F4440201D3C4040F4
:10269400207C1F1C2040201C1F3C4030403C1F4419
:1026A40028102844171CA0A0A07C1F4464544C4448
:1026B4000E00083641000400007F00000E00413681
:0E26C40008001F02010204021FAA55AA55AA0F
:00000001FF
