:100000000C94C7000C94E6000C94E6000C94E600F7
:100010000C94E6000C94E6000C94E6000C94E600C8
:100020000C94E6000C94E6000C94E6000C94E600B8
:100030000C94E6000C94E6000C9490010C94E600FD
:100040000C94E6000C94E6000C94E6000C94E60098
:100050000C94E6000C94E6000C94E6000C94E60088
:100060000C94E6000C94E6000C94E6000C94E60078
:100070000C94E6000C94E6000C94E6000C94E60068
:100080000C94E6000C94E6000C94E6006E616E00A1
:10009000696E660000407A10F35A00A0724E18098B
:1000A0000010A5D4E80000E87648170000E40B54DF
:1000B000020000CA9A3B000000E1F50500008096AE
:1000C0009800000040420F000000A08601000000E0
:1000D000102700000000E80300000000640000009A
:1000E00000000A00000000000100000000002C7663
:1000F000D888DC674F0823DFC1DFAE59E1B1B7967E
:10010000E5E3E453C63AE651997696E8E6C28426DA
:10011000EB898C9B62ED407C6FFCEFBC9C9F40F2B6
:10012000BAA56FA5F490055A2AF75C936B6CF96732
:100130006DC11BFCE0E40D47FEF520E6B500D0EDF7
:10014000902E0300943577050080841E080000205F
:100150004E0A000000C80C333333330F986E1283FD
:100160001141EF8D2114893BE65516CFFEE6DB18D1
:10017000D1844B381BF77C1D901DA4BBE424203296
:1001800084725E228100C9F124ECA1E53D2711248F
:100190001FBECFEFD0E1DEBFCDBF11E0A0E0B1E0E8
:1001A000EAE7FEE000E00BBF02C007900D92A0302E
:1001B000B107D9F711E0A0E0B1E001C01D92AE3067
:1001C000B107E1F70E94E8000C943B070C94000093
:1001D0000E94050184EF91E00E94FB0082E060E054
:1001E0000E940D0184EF91E00E94FB0081E060E03D
:1001F0000E940D01EFCF20EA3FE004C0F9013197E2
:10020000F1F701970097D1F70895BF9AC79ABD9A61
:10021000BE9A8FEF82B984BB0895482F80FF0BC030
:1002200095B321E030E0062E02C0220F331F0A945E
:10023000E2F7922B0CC085B321E030E0062E02C01D
:10024000220F331F0A94E2F7922F9095982395BBC3
:1002500041FF0AC083B121E030E002C0220F331F0A
:100260006A95E2F7822B0AC023B181E090E002C0D8
:10027000880F991F6A95E2F78095822383B90895C4
:100280009093070180930601089580910601909153
:1002900007010895909301018093000108958091D2
:1002A0000001909101010895909303018093020150
:1002B000089580910201909103010895109209011F
:1002C00010920801109205011092040110920A0187
:1002D00010920B0110920C0110920D01109201016D
:1002E0001092000110920301109202018FEF93E02F
:1002F0009093070180930601C598C698BD9ABE9A4F
:10030000BF9AC79A1DBC1CBC8AEA8FBD82E18EBD14
:1003100080E094E097BD86BD87B7846087BF08956D
:100320001F920F920FB60F9211242F933F934F936A
:100330008F939F93AF93BF93809108019091090190
:100340009C01285E3F4F309309012093080143E050
:10035000283E340778F0805D9340909309018093A4
:100360000801809104019091050101969093050187
:100370008093040180910401909105019C012F5FFD
:100380003F4F309305012093040143E0283E34079A
:10039000C8F0875E9340909305018093040180919B
:1003A0000A0190910B01A0910C01B0910D010196F1
:1003B000A11DB11D80930A0190930B01A0930C0124
:1003C000B0930D01809100019091010123E08F3FD6
:1003D000920710F080E094E09BBD8ABD80910201FD
:1003E0009091030143E08F3F940710F080E094E088
:1003F00099BD88BD809106019091070123E08F3F50
:10040000920710F080E094E0909379008093780058
:10041000BF91AF919F918F914F913F912F910F90ED
:100420000FBE0F901F9018952F923F924F925F92A0
:100430006F927F928F929F92AF92BF92CF92DF92F4
:10044000EF92FF920F931F93DF93CF93CDB7DEB759
:1004500063970FB6F894DEBF0FBECDBF6C017F87E8
:100460006E87FC0117821682838181FD04C06FC3F1
:100470004C855D8504C01E010894211C311CF601C9
:100480009381EE85FF8593FD859193FF8191FF8791
:10049000EE87882309F457C3853241F493FD859193
:1004A00093FF8191FF87EE87853259F490E0B60182
:1004B0004A8B5B8B0E94B1064A895B895D874C87BA
:1004C000D7CF10E0FF2400E00032B0F48B3269F0A7
:1004D0008C3228F4803251F0833271F40BC08D32AB
:1004E00039F0803349F401602CC00260046029C0F7
:1004F000086027C0006125C007FD2EC0282F2053AB
:100500002A3098F406FF08C0812F880F182F110F8A
:10051000110F180F120F15C08F2D880FF82EFF0C1A
:10052000FF0CF80EF20E00620CC08E3221F406FDB4
:100530000AC3006406C08C3611F4006802C0883615
:1005400059F4EE85FF8593FD859193FF8191FF8797
:10055000EE87882309F0B8CF982F9554933018F47C
:100560000061805E06C0982F9556933008F09BC1BD
:100570000F7E06FF16E06FE3E62EE022853619F4C3
:10058000F0E4EF2A07C0863619F420E8E22A02C018
:1005900011111150E7FE06C01C3340F4912E9394C4
:1005A00027E00BC0183030F4212F06C027E03CE3D1
:1005B000932E03C027E017E09924CA0104969D8773
:1005C0008C87FA016081718182819381A101092D5B
:1005D0000E94C3055C016980262D30E0398B288B91
:1005E00060FE03C0388933FF06C0E1FC06C0E2FEAE
:1005F00006C000E205C00DE203C00BE201C000E04E
:10060000888999898C7090700097C1F1002311F04E
:1006100084E001C083E08F1558F4F81AE3FC09C0A8
:1006200080E290E0B6010E94B106FA94C9F701C0D9
:10063000FF24002329F0802F90E0B6010E94B1062C
:10064000888983FD03C000E910E00EC00CE810E0CB
:100650000BC0A114B10409F0805290E0B6010E94D1
:10066000B1060F5F1F4F05C0AE2CBB2490E1A9223D
:10067000BB24F8018491882361F762C2E7FE0EC0B3
:100680009A0CF889F4FF04C08A81813309F49A94A2
:10069000191454F5292D293050F52DC0E6FC2BC036
:1006A000812F90E08A159B054CF03CEFA3163FEF9D
:1006B000B30624F080E8E82A01C01150112349F064
:1006C000E2E0F0E0EC0FFD1FE10FF11D80818033CF
:1006D000A1F3E7FE10C0912E9394812F90E0A8160D
:1006E000B90644F41A1907C09924939404C098E0F9
:1006F000992E01C010E0E7FE07C01A141B043CF459
:1007000095012F5F3F4F05C025E030E002C021E09A
:1007100030E0002311F02F5F3F4F112329F0812F8C
:1007200090E00196280F391F8F2D90E02817390788
:1007300014F4F21A01C0FF244E2C5524C201897012
:100740009070009749F406C080E290E0B6010E94E4
:10075000B106FA94FF20C1F7002329F0802F90E022
:10076000B6010E94B10643FC09C006C080E390E0D8
:10077000B6010E94B106FA94FF20C1F7E7FE46C019
:100780003501B7FE02C06624772425010894411C78
:10079000511C46185708420C531CF501E919F10980
:1007A0004F01812F90E000271127081B190BFFEF45
:1007B0006F16FFEF7F0629F48EE290E0B6010E94EB
:1007C000B106A614B70434F0861497041CF4F201A1
:1007D000808101C080E30894610871080894411C7D
:1007E000511C601671062CF090E0B6010E94B10613
:1007F000DECF6A147B0441F49A81963320F495335A
:1008000019F4F889F4FF81E390E049C08A818133CB
:1008100011F02FEE622290E0B6010E94B106112382
:1008200089F08EE290E0B6010E94B10602E0F1018B
:10083000E00FF11D0F5F808190E0B6010E94B106CC
:100840001150A9F744FE03C085E490E002C085E69C
:1008500090E0B6010E94B106B7FC05C0A114B10436
:1008600041F464FE06C0B094A194B108B3948DE243
:1008700001C08BE290E0B6010E94B10680E305C0A2
:100880008F5FE6EFFFEFAE0EBF1EFAE0AF16B104CA
:10089000BCF790E0B6010E94B106C501C096B60152
:1008A0000E94B1064DC1833631F0833789F083351C
:1008B00009F059C022C09A012E5F3F4F3D872C8717
:1008C000FA0180818983310181E0A82EB12C13C007
:1008D0009A012E5F3F4F3D872C87FA01608071801F
:1008E00006FF03C0612F70E002C06FEF7FEFC3010E
:1008F0000E94A6065C010F7714C09A012E5F3F4F3D
:100900003D872C87FA016080718006FF03C0612F4C
:1009100070E002C06FEF7FEFC3010E949B065C0195
:10092000006803FD1CC006C080E290E0B6010E9492
:10093000B106FA948F2D90E0A816B906A8F30FC05F
:10094000F30107FD859107FF81913F0190E0B6011A
:100950000E94B106F110FA940894A108B108A114FC
:10096000B10471F7EDC0843611F0893661F507FFE7
:100970000BC09A012C5F3F4F3D872C87FA016081A5
:100980007181828193810CC09A012E5F3F4F3D8718
:100990002C87FA0160817181882777FD8095982FD7
:1009A0000F7697FF08C090958095709561957F4F61
:1009B0008F4F9F4F0068A1012AE030E00E94DD06C2
:1009C000982E921841C0853721F40F7E2AE030E03E
:1009D00020C0097F8F36A9F0803720F4883509F0D0
:1009E000B2C00BC0803721F0883709F0ACC001C01D
:1009F000006104FF09C0046007C004FF08C006606E
:100A000006C028E030E005C020E130E002C020E16F
:100A100032E007FF0AC0CA0104969D878C87FA015D
:100A2000608171818281938109C0CA0102969D878C
:100A30008C87FA016081718180E090E0A1010E94C1
:100A4000DD06982E92180F7706FF09C00E7F9116CB
:100A500030F404FF06C002FD04C00F7E02C0E92C82
:100A600001C0E12E802F90E004FF0CC0FE01E90DD3
:100A7000F11D2081203311F4097E09C0E39402FFA7
:100A800006C004C086789070009709F0E394A02E09
:100A9000BB2403FD14C000FF0FC0EF1428F4192D70
:100AA0001F0D1E19EF2C08C0192D06C080E290E022
:100AB000B6010E94B106E394EF14C0F304C0EF1432
:100AC00010F4FE1801C0FF24A4FE0FC080E390E0E4
:100AD000B6010E94B106A2FE1FC0A1FE03C088E5B8
:100AE00090E010C088E790E00DC0C5018678907056
:100AF000009791F0A1FC02C080E201C08BE207FDEB
:100B00008DE290E0B6010E94B10606C080E390E05D
:100B1000B6010E94B10611509116C0F39A94F101EA
:100B2000E90DF11D808190E0B6010E94B106992087
:100B3000A9F706C080E290E0B6010E94B106FA94DF
:100B4000FF20C1F795CCF6012681378102C02FEF37
:100B50003FEFC90163960FB6F894DEBF0FBECDBF5D
:100B6000CF91DF911F910F91FF90EF90DF90CF9089
:100B7000BF90AF909F908F907F906F905F904F90BD
:100B80003F902F900895283008F027E03327DA01AE
:100B9000990F311D87FD916000966105710539F44B
:100BA00032602E5F3D9330E32A95E1F708959F3F31
:100BB00030F080387105610509F03C5F3C5F3D9382
:100BC000913008F08068911DDF93CF931F930F93AE
:100BD000FF92EF92192F987F9695E92F969596950B
:100BE000E90FFF27E251FF4F99273327EE24FF2417
:100BF000A701E70105900894079428F4360FE71E33
:100C0000F81E491F511D660F771F881F991F0694F4
:100C1000A1F70590079428F4E70EF81E491F561F08
:100C2000C11D770F881F991F661F0694A1F70590B5
:100C3000079428F4F80E491F561FC71FD11D880FAF
:100C4000991F661F771F0694A1F70590079420F45B
:100C5000490F561FC71FD81F990F661F771F881F80
:100C60000694A9F784911095177041F0D695C79511
:100C700057954795F794E7941A95C1F7E4E9F0E0A2
:100C800068941590159135916591959105907FE245
:100C90007395E118F10A430B560BC90BD009C0F745
:100CA000E10CF11E431F561FC91FD01D7EF4703387
:100CB00011F48A95E6CFE894015030F0080F0AF459
:100CC0000027021708F4202F2395022F7A3328F0EB
:100CD00079E37D932A95E9F710C07D932A9589F6EB
:100CE000069497956795379517951794E118F10A2B
:100CF000430B560BC90BD00998F023957E91739541
:100D00007A3308F070E37C932013B8F77E9170611A
:100D10007D9330F0839571E37D9370E32A95E1F73D
:100D20001124EF90FF900F911F91CF91DF919927A0
:100D300087FD90950895FC01059061507040011069
:100D4000D8F7809590958E0F9F1F0895FC016150F4
:100D5000704001900110D8F7809590958E0F9F1FDD
:100D600008950F931F93CF93DF938C01EB018B8139
:100D700081FF1BC082FF0DC02E813F818C819D8130
:100D80002817390764F4E881F9810193F983E8832E
:100D900006C0E885F985802F0995009731F48E818A
:100DA0009F8101969F838E8302C00FEF1FEFC801C2
:100DB000DF91CF911F910F910895FA01AA27283052
:100DC00051F1203181F1E8946F936E7F6E5F7F4F18
:100DD0008F4F9F4FAF4FB1E03ED0B4E03CD0670F94
:100DE000781F891F9A1FA11D680F791F8A1F911DE7
:100DF000A11D6A0F711D811D911DA11D20D009F437
:100E000068943F912AE0269F11243019305D319378
:100E1000DEF6CF010895462F4770405D4193B3E061
:100E20000FD0C9F7F6CF462F4F70405D4A3318F008
:100E3000495D31FD4052419302D0A9F7EACFB4E0B9
:100E4000A6959795879577956795BA95C9F7009771
:100E50006105710508959B01AC010A2E0694579512
:100E6000479537952795BA95C9F7620F731F841F69
:0A0E7000951FA01D0895F894FFCF10
:00000001FF
